:020000040800F2
:1080000000000220A552010805C6000809C60008A4
:108010000DC6000811C6000815C6000800000000C3
:1080200000000000000000000000000019C6000869
:108030001DC600080000000021C6000825C6000873
:10804000E9520108E9520108E9520108E952010820
:10805000E9520108E9520108E9520108E952010810
:10806000E9520108E9520108E9520108E952010800
:10807000E9520108E952010885120108E952010894
:10808000E9520108E9520108E9520108E9520108E0
:10809000E9520108E9520108E9520108E9520108D0
:1080A000E9520108E9520108E9520108E9520108C0
:1080B000E9520108E9520108E9520108E9520108B0
:1080C000E9520108E9520108E9520108E9520108A0
:1080D000E9520108E9520108E9520108E952010890
:1080E000E9520108E9520108E9520108E952010880
:1080F000E9520108E9520108E9520108E952010870
:10810000E9520108E9520108E9520108E95201085F
:10811000E9520108E9520108E9520108E95201084F
:10812000E9520108E9520108E9520108E95201083F
:10813000E9520108E9520108E9520108E95201082F
:10814000E9520108E9520108E9520108E95201081F
:10815000E9520108E9520108E9520108E95201080F
:10816000E9520108E9520108E9520108E9520108FF
:10817000E9520108E9520108E9520108E9520108EF
:10818000E9520108E9520108000000000000000067
:10819000844641EA000313F003036DD1403A41D312
:1081A00051F8043B40F8043B51F8043B40F8043BD1
:1081B00051F8043B40F8043B51F8043B40F8043BC1
:1081C00051F8043B40F8043B51F8043B40F8043BB1
:1081D00051F8043B40F8043B51F8043B40F8043BA1
:1081E00051F8043B40F8043B51F8043B40F8043B91
:1081F00051F8043B40F8043B51F8043B40F8043B81
:1082000051F8043B40F8043B51F8043B40F8043B70
:1082100051F8043B40F8043B51F8043B40F8043B60
:10822000403ABDD2303211D351F8043B40F8043B00
:1082300051F8043B40F8043B51F8043B40F8043B40
:1082400051F8043B40F8043B103AEDD20C3205D310
:1082500051F8043B40F8043B043AF9D2043208D008
:10826000D2071CBF11F8013B00F8013B01D30B887A
:1082700003806046704700BF082A13D38B078DD058
:1082800010F003038AD0C3F10403D21ADB071CBF2A
:1082900011F8013B00F8013B80D331F8023B20F894
:1082A000023B7BE7043AD9D3013A11F8013B00F8CD
:1082B000013BF9D20B7803704B7843708B78837055
:1082C000604670472DE9F04F04469DB0C4E908129E
:1082D000CE4801210CF08EFE01214FF4A0604FF03A
:1082E000000B0CF0ABFE4FF00309C02201A9C848F7
:1082F00001928DF80BB08DF808900CF0A3FB1E23B3
:1083000001A9C44801934FF00E0A0CF09BFB01A990
:10831000BF48CDF804A04FF4F8650CF093FB01A919
:10832000BD4801954FF400570CF08CFB4FF40068EA
:108330004FF480624FF480700126CDE914870DA9B7
:1083400006274FF4003513921690B44AB4480E92A3
:108350001795CDF840B0CDF848B0CDF860B0CDE974
:108360001ABBCDF834B00F94199611970CF074F92C
:108370003146AB48AB4D0CF09BF9AB480E904FF03B
:1083800080624FF0080804F10C030DA9A7480D9274
:108390000F93CDF844800CF05FF93146A3480CF000
:1083A00087F94FF470634FF4403103A80693CDE989
:1083B000041BCDF80CB00BF0F3FF4FF4006007A9DD
:1083C0000B909B48CDF81CB0ADF82060CDE909BBFF
:1083D0008DF830700BF0BCFF07A996488DF83080FF
:1083E0000BF0B6FF072305220B2191480BF0F6FF97
:1083F000072304220C218E480BF0F0FF4A46072386
:108400000D218B480BF0EAFF51463A460723884876
:108410000BF0E4FF39460723022285480BF0DEFF0C
:1084200007231946324682480BF0D8FF32464146B0
:10843000072380480BF0D2FF0723194602227D480C
:108440000BF0CCFF4A46394607237A480BF0C6FFAB
:1084500007230422052177480BF0C0FF314607238C
:10846000052274480BF0BAFF3A4649460723714883
:108470000BF0B4FF07231A4604216E480BF0AEFF41
:108480004246072302216B480BF0A8FF314668489B
:108490000BF0FEFF314666480BF0F0FF31466448B2
:1084A0000BF092FF314663480BF0F2FF3146614812
:1084B0000BF0E4FF31465F480BF086FF5C480BF0A1
:1084C000D3FF5C480BF0D0FF00BF00BF00BF00BF70
:1084D00000BF00BF00BF00BF083DF5D10121084625
:1084E0000CF088FD10260DA94948CDE90D652F46F1
:1084F0000CF0A8FA6577257704F1AC0104F12C059E
:1085000004F61C004A1B131F9E08013616F00702D2
:1085100041F8847C2B46C5F880701BD0012A15D009
:10852000022A11D0032A0DD0042A09D0052A05D029
:10853000062A01D043F8047B43F8047B43F8047B0C
:1085400043F8047B43F8047B43F8047B43F8047B43
:108550008B420DD09C464CF8047B5F60CCF80470D5
:10856000DF61C3E90377C3E9057720338B42F1D19B
:108570008831814205F18805C4D104F54E6E04F6B8
:10858000D84B04F6DC4900212B4D2C48CEF80010C6
:1085900004F2C476CBF8005004F6C433C9F80000E6
:1085A000C4F8C077C4F8C47B0027B2464AF8047BFD
:1085B0007760CAF80470F761C6E90377C6E9057702
:1085C00020369E42F1D1C4F8C87BC4F8CC7C04F6B6
:1085D000CC3504F6CC480022AC464CF8042B6A603B
:1085E000CCF80420EA61C5E90322C5E9052220355B
:1085F0004545F1D104F6D44104F54D644FF07E5069
:10860000086020601DB0BDE8F08F00BF270040006B
:108610000000024000080240001402404C200140CB
:108620007064024040420F004C220140106402403E
:10863000002001400022014097B8003D3633783FCA
:10864000F0B52DED028B8FB006463822002168462A
:108650000CF04CFE2C4D2D4C9FED2D8A10272846FA
:108660000BF002FF20460BF0FFFE28460BF002FF46
:108670000028FAD120460BF0FDFE0028FAD1B3897C
:10868000F089318A728A9DED066ADDED076A9DEDFB
:10869000087ADDED097A04EE103A04EE900A05EE50
:1086A000101A05EE902AB8EE440AF8EE640AB8EE05
:1086B000451AF8EE651AA0EE086A013FE0EE886AF6
:1086C000A1EE087AE1EE887A8DED066ACDED076AB3
:1086D0008DED087ACDED097AC1D19FED0E2A766A2B
:1086E00066EE022A26EE823A67EE023A67EE828A48
:1086F000C6ED002A86ED013AC6ED023AC6ED038AC0
:108700000FB0BDEC028BF0BD002001400022014003
:10871000000080370000803D2DE9F0410446436AA7
:10872000E5898089268A678AB4F80A80B4F802C08D
:10873000DFEDF97A93ED002AD3ED012A93ED023AA9
:10874000D3ED033AB4F800E0A388DFEDF40A9FED1F
:10875000F44A9FEDF47A2DED048B00EE105A08EEEA
:10876000100A01EE906A05EE907A06EE908AF8EE15
:10877000488AB8EE409AF8EE619AB8EE658A06EE3D
:1087800010CAE0882589A68AE78AB4F81AC0B4F826
:108790001880A8EEE72A90B0E9EE672AA9EEE73A3A
:1087A000E8EE673A09EE106A08EE107A01EE10EA78
:1087B00004EE903A05EE100AB8EE660AF8EE461A94
:1087C00005EE905A60EE276A21EEA76AB8EE411ACC
:1087D000F8EE644AB8EE455AF8EE655AF8EE499A52
:1087E000B8EE489A22EE202A29EE278A62EEA02AC5
:1087F00023EE203A63EEA03A69EEA79A66EEA60A47
:1088000066EE066A21EE276A24EEA71A65EE274A6D
:1088100025EEA75A00EE10CA8DED082ACDED092AE3
:108820008DED0A3ACDED0B3ACDED070ACDED036A99
:108830008DED026A8DED041ACDED054A8DED065AD7
:10884000CDED0C9A8DED0D8AD4F8AC00D4F834310E
:10885000A76AF8EE401A00F01F05B0EE460A013094
:10886000BEEEC80A08EE908A00F01F0804EB850EE1
:1088700004EB880CC4F8AC008EED0B0ADCF82C007D
:10888000D4F8BC5110EE106A301A3844F0EE665A33
:1088900003F01F07013303F01F08FEEEC85A04EB74
:1088A000870E04EB880CA062C4F83431CEED2D5A4B
:1088B000DCF8B470D4F8B03015EE900AC01B184440
:1088C00005F01F07B0EE419A0135C4F8B000BEEEC6
:1088D000C89A05F01F0004EB870E04EB8008C4F86B
:1088E000BC51D4F844028EED4F9AF8EE688AD8F85D
:1088F0003C71D4F8385119EE103A68EEA78A00F0AE
:108900001F0C61EEA77A0130F0EE641ADB1BFEEE5D
:10891000C81A00F01F0704EB8C0E1D4404EB8708F7
:10892000C4F83851C4F84402CEED711AD8F8C471B5
:10893000D4F8CC02D4F8C051CDED0F7A11EE903AB4
:10894000DB1B1D4400F01F07F0EE456A0130C4F840
:10895000C051FEEEC86A00F01F0504EB870C04EB63
:10896000850EC4F8CC02D4F85453CCED936ADEF8EB
:108970004C72D4F84802CDED0E8A16EE903A05F00E
:108980001F080135DB1BFEEEC80A05F01F0704EBCC
:10899000880C034404EB870EC4F84832C4F85453DF
:1089A000CCEDB50ADEF8D472D4F8DC53D4F8D0326A
:1089B00010EE900AC01B184405F01F070135C4F8DB
:1089C000D002BEEEC82A05F01F0004EB870804EBB6
:1089D000800CC4F8DC53D4F8640488EDD72ADCF8A2
:1089E0005C73D4F8585312EE103A00F01F0E0130A9
:1089F000DB1BFEEEC82A00F01F0704EB8E081D44A7
:108A000004EB870CC4F85853C4F86404C8EDF92A81
:108A1000DCF8E473D4F8EC04D4F8E05312EE903AA6
:108A2000BEEEC83ADB1B00F01F0E013004EB8E08CF
:108A30001D4400F01F0713EE103A04EB870CC4F836
:108A4000E053C4F8EC04C8F86C34DCF86C74D4F867
:108A50007405D4F86854FEEEC83ADB1B00F01F0E14
:108A6000013004EB8E081D4400F01F0713EE903A0E
:108A700004EB870CC4F86854C4F87405C8F8F434DF
:108A8000DCF8F474D4F8FC05D4F8F054B0EE696A5C
:108A9000BEEEC86ADB1B00F01F0E013004EB8E082F
:108AA0001D4400F01F0716EE103A04EB870CC4F8C3
:108AB000FC05C4F8F054C8F87C35DCF87C55D4F8D3
:108AC0007805194F5B1B0344C4F87835B0EE481A9B
:108AD000D4F88436BEEEC81A03F01F05013304EB48
:108AE000850E03F01F0811EE100A04EB880CC4F881
:108AF0008436CEF80406DCF80456D4F80C37401B54
:108B0000F0EE684AD4F80056FEEEC84A284403F056
:108B10001F0501330EE000BF000080376666863F08
:108B20005C8F82370AD7233C43082184AE47813FBC
:108B300000000000C4F8000604EB850E03F01F08D7
:108B400014EE900A04EB880CC4F80C37CEF88C06AF
:108B5000DCF88C56D4F89437401BB0EE675AD4F842
:108B60008856BEEEC85A284403F01F05013304EBB3
:108B7000850E03F01F0815EE105A04EB880CC4F89C
:108B80008806C4F89437CEF81457DCF81407D4F8E4
:108B9000CC3CA5EB000E03F03F08D4F8100704EB23
:108BA000880C86440133C4F810E7C4F8CC3CCCF8F8
:108BB000CC6BD4F8D00287FB00C70744C017C0EBCA
:108BC000271807EE908A03F03F0304EB830EB8EEFC
:108BD000E70ADEF8CC3BD4F8C87B20EE044AF31A4F
:108BE000B4EEC74A3B44F1EE10FAC4F8C83BB0EE0D
:108BF000489A0AD45FED335AB4EEE54AF1EE10FA22
:108C000040F32C83F0EE086A01E05FED376AA06A5A
:108C1000D4F85863E54FC1ED006A87FB06EC87FB8B
:108C200000E8B4448044F617C717C6EB2C1EC7EB08
:108C3000281002EE900A03EE10EAF8EEE23AF8EE9F
:108C4000C36ADFEDDB0A9FEDDB2A33EEA66A26EE70
:108C5000201AB4EEC21AF1EE10FA0AD4DFEDD64AA9
:108C6000B4EEE41AF1EE10FA40F3EF82B1EE004AEE
:108C700001E09FEDD24A9FEDD27A04F54D6CDCED18
:108C8000001A74EE615AF4EEC75AF1EE10FA7ADD6A
:108C900074EE471A9FEDCB2ACCED001AF4EEC21AFF
:108CA000F1EE10FA40F183809FEDC76A71EE867A8B
:108CB000B0EE671ABEEEC81A11EE106AD4F8C47B83
:108CC000D4F8C0879FEDC10ADFEDC14A9FEDB85AC5
:108CD000DFEDB81A07F1010EF8B204EB800C5FFA71
:108CE0008EF704EB8700C4F8C4EBCCF8C467D0F867
:108CF000C407B84F361A464487FB0608B044F0173D
:108D0000C0EBE81704F6D44CD4F8E003DCED005ACD
:108D1000C4F8C06704EE107AD4F8B060A34F87FBA4
:108D2000008E87FB068786443744C017F617C0EBD2
:108D30002E18C6EB2717B8EEC47A02EE107A02EEB0
:108D4000908AF0EE650AD7EE000AB8EEE23AF8EE45
:108D5000C23AE0EEA45A33EE236ACCED005A66EE36
:108D6000057AC1ED015AF4EEE17AF1EE10FA31D450
:108D70009FED911AF4EEC17AF1EE10FA40F35E82A3
:108D80009FED955A28E0DFED950A9FED8E2AF4EECF
:108D9000E05AF1EE10FA48BF74EE071AF4EEC21A68
:108DA00048BFCCED001AF1EE10FA3FF57DAFDFEDD4
:108DB0008C2AF4EEE21AF1EE10FA40F329829FEDCC
:108DC000823A71EEC37AF0EE673AFEEEC83A13EEDD
:108DD000906A73E79FED795AD4F83861D4F8680443
:108DE000724FDFED731A9FED734A81ED025A87FBD4
:108DF00000EC87FB06E88444B044C017F717C0EBCB
:108E00002C1EC7EB281605EE906A07EE10EAB8EEA6
:108E1000E52AF8EEC70A70EE822A22EEA13AB4EEF5
:108E2000C43AF1EE10FA0CD4DFED633AB4EEE33A53
:108E3000F1EE10FA40F3EF81DFED6A1AF7EE000A67
:108E400003E0DFED691ADFED5D0AD4F8C061D4F804
:108E5000F004564F9FED5A2ADFED642A9FED543AF5
:108E60009FED544A87FB00EC87FB06E88444B0443E
:108E7000C017F717C0EB2C1EC7EB281603EE906A3D
:108E800007EE10EA04F6F44C04F6F848DCED005A5C
:108E900098ED006AB8EEC71AF8EEE37A31EEE50A0B
:108EA00030EEC65A71EE274AE0EE025AA5EE226A6B
:108EB00064EE831ACCED005AF4EEC41AF1EE10FA07
:108EC00088ED006AC1ED045A81ED036A0AD4DFED32
:108ED0003A0AF4EEE01AF1EE10FA40F39681B7EE9A
:108EE000002A01E09FED352AD4F848022F4FDFED2C
:108EF000302A9FED303A81ED062A87FB007E8644BA
:108F0000C617C6EB2E1604EE106AF8EEC45A65EECC
:108F1000A23AF4EEC33AF1EE10FA0AD49FED267AA3
:108F2000F4EEC73AF1EE10FA40F35E81DFED300A5D
:108F300001E0DFED300A9FED302AC1ED050AF4EEC5
:108F4000C29AF1EE10FA04DD94F8F16C002E40F0B4
:108F50008F81DFED2A2A2A489FED163AF4EEE29A35
:108F6000F1EE10FA44BF012684F8F16C80FB03682F
:108F70009844DB17C3EB681704EE107AF8EEC45A76
:108F8000DFED0B9A75EEA63A23EEA97AB4EEC37A1A
:108F9000F1EE10FA36D49FED081AB4EEC17AF1EE74
:108FA00010FA40F30F814FF083402DE043082184F5
:108FB0005C8F82370AD7233CAE47813F0000000018
:108FC0008FC2F53C7B146E3F295C8F3D00008037DB
:108FD0000AD7A33B818080803333B33F8FC2F5BC77
:108FE000C3F5883FB587FD10C3080C3D4260E53BE3
:108FF000007C124956EC2342CDCC4C3ECDCCCC3D2E
:10900000832008824FF07850D4F8BC37C8615F1CC9
:1090100003F0070604EB860807F0070E04EB8E0C3E
:10902000C4F8BC77C8F89C57DCF89C77D4F898371C
:109030009E48DFED9F1AED1B1D4480FB05362E4434
:10904000EF17C7EBA60800EE908A04F6E44E9EEDFB
:10905000002AD4F8EC3CC4F89857FAEEC80A70EE2F
:10906000C26ACEED000AF4EEE16AF1EE10FA02D522
:109070000F2B00F29B8001330025D4F800768D4839
:10908000DFED8D8AC4F8EC3C80FB0768F4EEE86AFB
:10909000B844FE17F1EE10FAC6EB281EC8BF012334
:1090A00009EE90EAC8BF84F8E83C04F6D843FAEE2B
:1090B000C89A93ED003A93ED024AD3ED015ADFEDE1
:1090C0007F2AA3EE294AE4EE659A63EE293AF4EE8C
:1090D000E29AE4EE253AF1EE10FAC3ED023A03DD2E
:1090E00094F8F03C002B35D19FED758AF4EEC89AC8
:1090F000F1EE10FA44BF012384F8F03C002D45D175
:10910000627F267F1ABB76B1206A00F59A5C9CEDDF
:10911000040AB5EE400AF1EE10FA0CBF012100215D
:1091200000F04EFA667F2677102166480BF0E4FDCA
:10913000031C18BF0123637763480BF095F963485C
:1091400010B0BDEC048BBDE8F0410BF08DB9002EE2
:10915000E9D1D9E7002584F8F05C1AB19FED5C9A5B
:1091600039EE489AB5EEC09AF1EE10FA4FF00007CA
:1091700000F19A8081ED089A9FED517AF4EEC79A3A
:10918000F1EE10FA02D5012084F8F00C206A002AD2
:109190006BD091ED081A9FED4F5A91ED050A0169C8
:1091A00061EE017AA7EE850A8847A9E794F8E85CA2
:1091B000002D77D04FF0000CC1ED088A012384F810
:1091C000E8CC5AE737EE430AB2EE0E5AF6EE007AD2
:1091D000E0EE057A404EBDEEE76A16EE10EA06EBC9
:1091E0008E0CDCF800000FE79FED3C1A9FED3C0A67
:1091F0009FED3C5A73EE817A67EE804A24EEA46AB2
:1092000066EE061A61EE850A95E631EEC42A6BE633
:109210004FF4803652E533EEC36ADFED337A9FEDCB
:10922000331AA6EE271A33EE440A21EE015A60EEF5
:10923000004A65EE051A64EE800A06E637EEE10A9A
:10924000DFED2B4A20EE245AC6E531EE425AB1EE4C
:10925000000A65EE057A27EE804A0CE574EE471A9F
:10926000B0EE087A61EE876AD1E400F01BFA47E7B6
:10927000206ACDE9001200F0EBF9D4F858130D4A3A
:10928000D4F8C83B82FB012C8C44C817C0EB2C17C8
:1092900006EE907A0026F8EEE66A84F8F16CDDE9D5
:1092A000001256E60133E8E60F6265E7932449921F
:1092B0006F12833A430821840AD7A33C0AD7233C80
:1092C0000AD7A33B000002400020014000220140D9
:1092D0009A99193F007C924814540108EC51B83D0A
:1092E0002EBA683F007C1249F628DC3E95BFD63383
:1092F0003333B33F2DE9F84FDFF8B8E2DFF8B8C2F7
:10930000DEF80030A54FA64EDFF8B0929FEDA57AAB
:10931000804641F22C2A0CFB037548F80A1008F528
:109320009A5341F23421002448F80120DC601A46A7
:1093300008F5995308F59A510CFB057B946007EEEC
:10934000905A1E6200EE10BA0E4641F26430964DFD
:10935000C3F81C905D6208EB00090C612346746140
:10936000FFEE000A41F2683541F26C318F4C48F84B
:10937000004041F2703641F2743AB8EE676AF8EE96
:10938000406A4BF680320020F0EE605AF0EE601A30
:10939000C9F81400E6EE875A48F80520E6EE071AE9
:1093A00048F8012008F59B5548F8062008F59C511F
:1093B00048F80A2041F286327D4CEC610C6008F5D9
:1093C000056508F8020008F50A604FF085494FF07E
:1093D0007C5608F5925AEB61EB602B61AB626B60D7
:1093E000C5ED081AC5F80090AE600AF1100AC0ED8C
:1093F000085AC361C360036108F50F628362C0F855
:109400000090436086600CFB0B740CFB047B0CFB30
:109410000B750CFB057102EE90BA0CFB017B03EEA1
:10942000104A04EE105A04EE901A06EE10BAB8EE86
:10943000625AF8EE433AF8EE447AB8EE640AB8EEAF
:10944000461AF0EE606AE5EE076A02F5A070C2F80F
:10945000BC30B0EE602AF0EE605AF0EE602AB0EE5A
:10946000605AA3EE872AC2F8AC30C2F8B030E7EEFB
:10947000875AC2F8C830C2F8A090E0EE072AC2F8B6
:10948000A430C2F8A860A1EE075AC2F80C31C2F8A5
:10949000FC30C2ED305AC2ED442AC2F80031C2F8A5
:1094A0001831C2F8F090C2F8F430C2F8F860D36115
:1094B000D36013619362C2F800905360966082EDAE
:1094C000082AC2ED1C6AD366D36513669367C2F897
:1094D000509053659665C2F85C3182ED585AC2F8D7
:1094E0004C31C2F85031C2F86831C2F8409102F5EF
:1094F000C87252454360866085D141F22C2741F203
:10950000342608F62C0108F11400CEF800B002F061
:1095100077FB58F8073058F8064003EB4405AB4298
:1095200036D0E91A881E4208013212F007064FF0C1
:10953000000719D0012E13D0022E0FD0032E0BD00E
:10954000042E07D0052E03D0062E23D123F8027B4C
:1095500023F8027B23F8027B23F8027B23F8027BAB
:1095600023F8027B9D4213D09E4610332EF8027BD7
:1095700023F80E7CAEF8027023F80A7C23F8087CEE
:1095800023F8067C23F8047C23F8027C9D42EBD16F
:10959000BDE8F88F23F8027BD8E700BF5FF36E3C8D
:1095A0005555D53F0000003090B87F3F8032020013
:1095B00000803B47000000200D661900A8922B3A5E
:1095C00000F59A5300F59C521033D2ED077A93EDD3
:1095D000007A01B3F7EE000A37EEA01AB5EEC07AB2
:1095E000C0EE811A00F59A520021F1EE10FAC2ED98
:1095F000051A48BF196000F59C5393ED032AD0ED7E
:10960000082A22EE223A41F25C31FCEEC33A13EE14
:10961000902A42507047BFEE006AC6EE276A00F5F6
:109620009A50B7EE000AB4EEC07AF1EE10FAC0ED2F
:10963000056AC8BF83ED000A704700BF19B141F247
:1096400086330022C25441F2843C00F80C1070476B
:10965000F0B400F59B56124A3368934207D841F2A2
:109660008431445C1CB941F286350127475541F2EB
:109670006434011950F804C04A69571C02F003050C
:1096800001EB850207F0030501EB85054F6153608F
:1096900069685B1A0027634403513760F0BC704768
:1096A000FF76010070B591F824502DED028B002D4E
:1096B00065D041F285330446C05C002855D041F2A4
:1096C00058320E4641F28630A158235C07EE901ABC
:1096D000B8EE671AB3B141F2643C434854F80C2029
:1096E00080FB021EAEEBE27107EE101AB8EEC78ADD
:1096F000F6EE000A81EE080A30EE200A0BF046FE74
:1097000020EE081A04F59C5396F82C00D3ED036A5A
:109710000128C1EE261A48D0022833D0B7EE001A2D
:10972000022D40D094ED084AB5EE404AF1EE10FA11
:1097300039D0012D0CBF0325052541F2342296EDC9
:10974000080AA35804EE903AB8EE645AB4EEE15A0F
:10975000F1EE10FA39DC02252846E668B047BDEC88
:10976000028B6168BDE870400847BDEC028B0122A6
:10977000E254B7EE000AE368BDE870401847BDEC5C
:10978000028B70BD41F2873C9FED182A14F80C2023
:10979000B7EE001A002A82F0010104F80C1008BF8D
:1097A000B0EE421ABCE70125C7E7114A1148136819
:1097B0001149DFED123A00FB031002EE900AB8EEF9
:1097C000623A106023EE231AAAE7F0EE400A96F8F8
:1097D0002510B0EE610A04F1140002F0ABFB96ED27
:1097E000080A0028B7D0B7E75655555500000000C5
:1097F000000000200D6619005FF36E3C0000802F12
:1098000010B50446143002F0EDFC08B163689847C7
:10981000D4ED087AF5EEC07AF1EE10FA00D910BD59
:1098200041F2853141F2583200206054A05010BD01
:1098300010B50446143002F03FFE41F2853141F28A
:109840005832002363546068A350BDE810400047BD
:10985000F0B5DFF86CE29FED966ADEF80020954FD8
:10986000954EDFED967A00F5925C00F59C540CF174
:10987000180C073400F658000025F7EE006A4CE09B
:10988000022900F0BD80B7EE007A034617EE100AF9
:10989000012943F8500B52D0022900F0FE80B7EEA8
:1098A000002A012983ED002A56D0022900F0EA801F
:1098B000F7EE003A0129C3ED143A5AD0022900F01C
:1098C000D680B7EE005A012983ED285A5ED00229CE
:1098D00000F0C280B7EE000A012983ED3C0A62D095
:1098E000022900F0AE80F7EE001A0129C3ED501AEC
:1098F00066D0022900F09A80B7EE003A012983ED84
:10990000643A6AD0022900F08680F7EE004A03F537
:109910000C708445C3ED784A6ED00129B0D107FBA5
:10992000026200EE102AF8EE400A034620EEA77A03
:10993000012917EE100A0D4643F8500BACD107FB76
:10994000026201EE102AF8EE411A012921EEA72A3F
:109950000D4683ED002AA8D107FB026202EE902A91
:10996000B8EE623A012963EE273A0D46C3ED143A88
:10997000A4D107FB026204EE102AF8EE444A012942
:1099800024EEA75A0D4683ED285AA0D107FB0262A8
:1099900005EE902AB8EE657A012927EE270A0D46D2
:1099A00083ED3C0A9CD107FB026200EE902AB8EEE0
:1099B000601A012961EE271A0D46C3ED501A98D19D
:1099C00007FB026202EE102AF8EE422A012922EE7B
:1099D000A73A0D4683ED643A94D107FB026203EE89
:1099E000902AB8EE634A03F50C7064EE274A84456A
:1099F0000D46C3ED784A90D10DB1CEF80020F0BDF0
:109A00002378002B83F0010323700CBFB0EE467A5D
:109A1000B0EE667A39E72078002880F001002070E7
:109A20000CBFF0EE464AF0EE664A70E72078002858
:109A300080F0010020700CBFB0EE463AB0EE663AFE
:109A40005CE72078002880F0010020700CBFF0EE69
:109A5000461AF0EE661A48E72078002880F00100E8
:109A600020700CBFB0EE460AB0EE660A34E72078EC
:109A7000002880F0010020700CBFB0EE465AB0EE16
:109A8000665A20E72078002880F0010020700CBF83
:109A9000F0EE463AF0EE663A0CE72078002880F0C7
:109AA000010020700CBFB0EE462AB0EE662AF8E640
:109AB000000000000D6619005FF36E3C0000802F6F
:109AC000000000202DE9F04F2DED108BADF50F7D3E
:109AD0000446089041F284300F46215CD4ED087AA8
:109AE000CDE9012331B3F5EEC07AF1EE10FA21DDB4
:109AF00041F26432089DB34BAC58DFEDB35A97ED99
:109B0000076A83FB0420A0EBE47207EE102A05F538
:109B10009B58D8ED076AB8EEC70A70EE660AE0EE09
:109B2000A56A86EEA71AC8ED076A61EE061AC7EDA8
:109B3000011A01E0D7ED011A089D41F2853927EE9F
:109B4000A12A41F2583B15F8096055F80B300A96E6
:109B5000FCEEC22A0CEE903ACDED092AC6B197F878
:109B600024001C46403402280CEE904A45F80B4075
:109B700001F00D801CEE901A099A914208D98E1AB4
:109B8000089941F258358E460CEE906A4EF8056001
:109B9000089897ED003ADFED8D3A4269D7F81490B6
:109BA0009FED8B6A00F59C54083494ED004A0B94A9
:109BB00073EE444AC0F81C9064EEA38A02F5206B51
:109BC00092ED0C8A92ED209A92ED34AA92ED485AC9
:109BD000D2ED5CAA92ED70BAD2ED84BA92ED98CA39
:109BE00036EE08DA02F520727DEE09DA93453DEE95
:109BF0008AEA7EEE05EA3EEEAAFA7FEE0BFA7FEEE7
:109C0000AB7A37EE8C6ADBD1F7EE005AB4EEE56A38
:109C1000F1EE10FAB8BFB0EE656A6E4D08989FED90
:109C20006E3A97ED027A6D4EDFED683AD6F800C0D5
:109C3000069716EE101AB6EE000AA5EB510E04EECA
:109C400090EA66EE006A00F5995426EEA48AB7EE13
:109C5000089A04F1180EA4EEC89A41F22C23C518F4
:109C60009EED00AAAC680594F0EE4A7AD4EE897AAB
:109C700000F59C5641F25C320146A7EE83AA03959B
:109C800000F59A5AC3588EED00AA6AEE07AA0AF1A7
:109C9000100BC7ED02AAD6ED044A86586A689AED01
:109CA000047ACDF81CB001F59A5505999FED4C1A30
:109CB000DFF83C91DFF83C81DFED4A1A9FED4A2A3C
:109CC000DFED4A2ADFED420ADDF804B000F59150DD
:109CD0003AEEE4BA00F11804A1EB060A6BEE23BADF
:109CE0000C94143500200F46CDF810A018E0B7EE04
:109CF00000CAB4EECC7AF1EE10FAC4BFB0EE4C7AE2
:109D0000C5ED000A974223F8121014BF0132002259
:109D1000A64534EE284A74EEAB4A00F101006BD040
:109D20003BF920A0B4EC01CA95ED00EA09FB0C8CCC
:109D30000DEE10AA06EE10CA964288BF04996CEE8A
:109D400024EAB8EECDFA64EE02FAF8EE465ABEEE18
:109D5000000A8CBF8918911BEFEE2FEA33F911101E
:109D6000A5EEA10A0DEE901AE0EE22EA67EE013AA6
:109D7000B8EEED3AB6EE008AE3EE23EAF3EE0B6AB4
:109D80002EEE889AB2EE02AA69EE097A37EE0E7AC2
:109D900037EEA65AE7EE8A6A65EE09AAB5EEC07AF2
:109DA0008AEEA6BAF1EE10FABEEEE8BA1BEE10AAE1
:109DB0000AF30F0109B29AD5C5ED000A9FED047AA6
:109DC000A0E700BF565555556F12033B0000803C7D
:109DD00000000000DF59375FCDCC4C3D0000002073
:109DE000000080380000802F00000038000000399B
:109DF0000D6619005FF36E3CDDE90679039C894D21
:109E000062600026C5F800C089ED007A10A90DF146
:109E100038088E4641F8086C41F8046C4EF8086B1F
:109E200070464EF8046C40F8086B01F1300B40F8B6
:109E3000046C01F1380A0E614E618E61CE610E62D2
:109E40004E6290AC40318C424BF8086C4BF8046C7D
:109E50004AF8086C4AF8046CDBD1099E002E40F0E9
:109E600060830A9CB0EE6CDA002C00F066831DEE75
:109E7000105A402D8CBF002501250D954FF0000B89
:109E8000DFED69DA0899CDF810C0CDE906BBDDF841
:109E900028C0D7ED017ACDF82880DFED64FA9FED78
:109EA00064FADFED64EA9FED64EA9FED640ADFF88F
:109EB000A0E1DDF82C80B0EE6DCA01F62C0090F820
:109EC0002040002C00F05683012C00F0BD84022CB1
:109ED00000F0AD81BCF1000F32D0D0ED0CAAF5EE50
:109EE000C0AAF1EE10FA40F3938490ED094ADFED39
:109EF000548A27EE843AB8EE4D9A33EE686AB4EE8F
:109F0000C96AF1EE10FA09D873EE284A069EB4EE3B
:109F1000649AF1EE10FA48BF66460696F8EE6C2A8F
:109F2000B4EEE26AF1EE10FA0AD89FED45BA33EECC
:109F30000B8AF4EEC82AF1EE10FA48BFD0ED0ADA27
:109F4000039D50308542BAD1079BDDF810E0DDF863
:109F5000288013B1334AC2F800E00D98002840F081
:109F60001186F5EEC0DAF1EE10FA05DD089EB0EECE
:109F70006D0AF5680420A847069B002B40F0FD857C
:109F8000089DDDED09DAD7ED069A039BDFED2DCABA
:109F90009968039741F2B83405F59D592E5999ED0A
:109FA000003A029CD3F804B0DFF8A8E0DFF8A8C0BC
:109FB000DFED25FA9FED25FA0C9F40360DEE106A75
:109FC000F8EE6DEA05F59956F8EE4D4A1C3696ED19
:109FD000002A96ED010A96ED02AAD6ED03AAD6ED67
:109FE000043A3EEEE4EA39EEC3CA41F22C202EEEEA
:109FF0002C1A6CEE2C0A32EE006A32EE02BA2858A5
:10A000000139002204F1020AB0EE009AF3EE008A50
:10A01000F6EE002AB7EE008AB3EE0B4AF2EE021A11
:10A020001CE000BF00000020000000003889B8429A
:10A030000000B242C92F163C49265F428FBA214127
:10A04000000080420000803C0000003800008038A2
:10A05000DF59375F847E0108C87E0108FDEEE49A6F
:10A06000019DD8ED007A35F9229098ED01DA19EECC
:10A07000903AABEB03035D1E9C1E0D400C4030F983
:10A08000155030F9144005EE109A03EA0109F0EE7C
:10A09000636AE6EE2A6A033B0B4007EE105A30F97A
:10A0A000195005EE904A77EEA7BA0CEE905AF8EEEA
:10A0B000C7EAB8EEE5EA3BEEE6CAB8EEEC0A30F9DC
:10A0C00013407EEECEDA3EEE407AADEE09CA08F1DC
:10A0D000080807EE904AF0EE6D5AE7EE225AF8EEC5
:10A0E000E7CA6CEE0A6A3CEEEEEAE2EE26AA63EEFE
:10A0F00028CAB0EE650AAEEE220AF8EEE99AFDEE45
:10A10000EC7A34EEE9CA17EE905AEAEE8B3AAB00DD
:10A110001C1DE2EE26AA0EEB03090EEB040570EE01
:10A120002DDA3CEE48DAC6ED043ADDEE8D5A634492
:10A130006444C6ED03AAE7EC016AD9ED009A95EDF7
:10A14000000A93ED00DA029DB8EEE7EA65EE8C6A4C
:10A15000D4ED007A7CEECE5A70EE69CAE7EE226A40
:10A16000E5EEAC9A37EECD7AB8EEC55AA7EE25DA11
:10A17000ECEE26EA69EEABDA65EE2FBA6EEE8FEA08
:10A18000EBEE8DDA2EEEAECA2DEEADEAB0EE440A5D
:10A19000B0EE445A7CEE049AACEE210A7EEE046ADC
:10A1A000AEEE215A69EEAECA26EEADDACCEE807A7A
:10A1B0008DEE057AFEEEE87ABEEEE87A17EE903A7A
:10A1C00003F30F0917EE104A04F30F0325F82230AA
:10A1D0002AF822900132402A74EE814A33EE203A66
:10A1E0007FF43CAF039F089E0B9C099D0FCF41F26B
:10A1F000B83B06F59B5C46F80B500FC40FCF0FC45D
:10A2000097E80F00DCF80050CD4F4035BD4284E8A0
:10A210000F00CCF8005004D941F28630089A002192
:10A2200011540DF50F7DBDEC108BBDE8F08FD0ED16
:10A230000A8A97ED0A1AC34EC349DFEDC41A90ED9E
:10A24000102AD0ED11BAD0ED0E0AF0EE4F6AE8EE0A
:10A25000AF6AB7EE008AFDEEE63A61EE015AF8EE1B
:10A26000E32A13EE90AA36EEE29AB3EE043ABEEE7B
:10A27000CC9AB0EE48AAA5EE83AA06EB8A0919EE9D
:10A28000105A99ED007A01EB850B67EE2EAA9BED33
:10A29000005A88EE0ABA6AEE854AB0EE404A64EE89
:10A2A000A48A80ED01BAA8EE8E4A3BEEC21AE8EE0F
:10A2B000841AB0EEC12A61EEA43AF0EE481A73EEA9
:10A2C0008B2AC0ED003AE3EEA21A88EE21AA80EDB7
:10A2D00002AA97ED046AC6EE026AF4EEC86AF1EECD
:10A2E00010FAC8BFF0EE486A70EEA6AAC0ED0F6A79
:10A2F000F4EEC8AAF1EE10FAC0ED0EAA26DD944CD9
:10A30000049E944D90F84810DFED930ADFED935AC8
:10A31000C0ED10BA05FB064503EE105A7AEEC8AA46
:10A32000B8EE439A81F001040495C0ED0EAAE9EE5F
:10A33000205A80F84840002C00F0198438EE6B7ADF
:10A34000E5EE87BA01210791C0ED11BA90ED09BA87
:10A3500098ED015A9FED824ADFED824AD0ED138AD3
:10A3600098ED031A90ED102AD7ED031A90ED0C6AC0
:10A37000DFED7D0A6BEE056AB0EE009AF4EEC46A7A
:10A38000B0EE088AF1EE10FA36EEA43A28EE817AA1
:10A390007BEEC2BAAAEEC98A6AEEAA5A6BEE277A97
:10A3A00088BFF0EE446AA6EE873A65EEABAAF4EEFB
:10A3B000C47AF1EE10FAA8EE2A2A98BFB0EE674AE6
:10A3C00077EEC34A24EE214AB5EEC06AE2EE044AB3
:10A3D000F1EE10FA80ED132A24EEA07A00F1B88392
:10A3E000F7EE008AB4EEE86AF1EE10FAD1BFD0EDD4
:10A3F0000D9A80ED0DCAB0EE686AF0EE4C9ABDEE93
:10A40000CBBAD0ED0B1A059D90ED035AD0ED045A4E
:10A41000DFED564A9FED569A1BEE106AB7EE002A02
:10A4200006F0010AB94623EE8A4A72EE618A73EE9B
:10A43000A33A6E1E10A9B3EE048AF6EE000AB7EE38
:10A44000081A5746CB4673EE246AB0EE65BAFDEEA5
:10A45000E6BA79EE86AA1BEE904A141B651E3540BB
:10A46000344033F915A033F914900AEE10AA07EE20
:10A47000909AF8EEEBBAF8EEE77AB8EECAAA76EE62
:10A48000EB6A7AEE67BAA2EE85BAE6EEAB7A74EEC4
:10A49000874A67EE897A0FB9F1EE677AC0ED0CAAA8
:10A4A000DBED0ABA11ED02AA51ED016A6BEEABBA0F
:10A4B00097EE86BA08310DF5107AB0EE426AABEE2F
:10A4C000886AA4EE0B5A16EE104AAEEB5405F0EE75
:10A4D0004B7A26EE206A0BEE105A26EE0B6AF0EE4F
:10A4E00045BAA4EE275AF0EE417AEBEE467AB0EE8A
:10A4F0006A6A67EE8BAAEBEEA35A6AEEABBAABEED2
:10A50000A1AAEBEEA86A01ED04AA41ED036A8A450F
:10A5100099D180ED035AC0ED045A5F46DBED017A14
:10A52000D8E41CEE905A0A9CB5FBF6F106FB1150DC
:10A530000DEE100A002C7FF49AAC0A9E0D969DE455
:10A5400000770100EC830108E87F0108DB0F494038
:10A550005FF36E3C0D6619003333332F9A99993EA1
:10A560000080BB46000080420000803C00000000EC
:10A570000000003890ED11AAD0ED10BAD7ED042AF2
:10A5800097ED0ABAD0ED0A4AD0ED0E1A3AEE6B2AD0
:10A59000B7EE007AB0EEC23A82EE834A77EE4B8A8B
:10A5A000B4EEC74AF1EE10FAA4EEA8BAC8BFB0EEF6
:10A5B000474A31EE848A2BEE0B6AB4EEC78AF1EE7D
:10A5C00010FA80ED0F4A66EE0BAA40F3AD82954D6E
:10A5D000049E954C90F848909FED949ADFED943A44
:10A5E00080ED10AA05FB064105EE901A78EE476A49
:10A5F000F8EE650A89F00105B0EE491A0491C0ED44
:10A600000E6AA0EEA31A80F84850002D00F08F8249
:10A6100077EE4ABAA1EE2BAA0124079480ED11AA85
:10A62000D8ED012A90ED09AA9FED82BA90ED134A68
:10A63000D8ED038A90ED0E3AD0ED104A9FED7E7A68
:10A6400090ED118AD7ED031A90ED0C2A9FED7B6AED
:10A650002AEE229AF0EE003AB4EECB9AF0EE085AC7
:10A66000F1EE10FA39EE075A64EE286A38EE641AF1
:10A67000E3EE635A63EE030A6AEE277A88BFB0EE10
:10A680004B9AA9EE265A61EE20BAF4EECB7AF1EE9F
:10A6900010FAE5EEAB4A98BFB0EE67BA77EEC52A7E
:10A6A0002BEE21BAB5EEC02AE4EE8B2AF1EE10FAB9
:10A6B000C0ED134A22EE864A00F12D82B7EE007AF1
:10A6C000B4EEC72AF1EE10FA40F33682B0EE472A14
:10A6D000F0EE4C8A80ED0C7A80ED0DCABDEECAAA70
:10A6E00090ED0B6A0599DFED566A9FED563A1AEE2A
:10A6F000106AB7EE008A38EE469A06F001054E1E43
:10A7000010A976EE843A76EE855A73EE851AFDEE40
:10A71000E50ABDEEE11A10EE904A11EE10BA141BD4
:10A72000A2EB0B0A04F1FF3B0BEA060B344033F9B2
:10A730001BB033F9144006EE90BA07EE904AF8EEDB
:10A74000E0BAF8EEE72AF8EEE64A35EEEB8A34EEA8
:10A75000E2AAB8EEC17AE8EE0A2A0AF1FF3909EA5C
:10A7600006092AEE82BA71EEC75A0AEA060A01F110
:10A77000080B32EE282A62EE831A0DB9F1EE611A47
:10A7800033F91A4051ED02BA11ED011A00EE904A68
:10A7900033F9194006EE904AF8EEE07AF8EEE64A10
:10A7A00061EE8B2A34EEE7BAB0EE6B8AA2EE868AAF
:10A7B000E5EE8B7AA2EE891A27EE83AA01ED028AD2
:10A7C00001ED011A0DB9B1EE4AAA2AEE827A5BEDCB
:10A7D000025A5BED011A6AEE070A73EE846AF0EE24
:10A7E000653AE0EE863A0BF108010DF5107AE0EEDD
:10A7F000891A8A4532EE282A4BED023A4BED011AAE
:10A800007FF47FAF80ED0C2AD7ED017AFFF762BBB2
:10A8100090ED0D5AB5EEC05AF1EE10FA3FF765AB68
:10A82000FFF78EBB0D6619005FF36E3C9A99993E57
:10A830003333332F0080BB46000080420000803C51
:10A84000000000000000003890ED117AD0ED102AD1
:10A8500097ED043AD7ED0A1AD0ED0E5A90ED0A9A08
:10A8600037EE625AB7EE002AB0EEC54AC3EE043A9C
:10A8700072EE618AF4EEC23AF1EE10FAC8BFF0EE61
:10A88000423A35EEA3BAE9EE281AB4EEC2BAF1EEB6
:10A8900010FAC0ED0F3A80ED0EBA21EEA1AA26DD26
:10A8A000BD4C049EBD4D90F848109FEDBD8ADFED74
:10A8B000BD0A80ED107A05FB064501EE105A3BEE0D
:10A8C00042BAF8EE414A81F00104049580ED0EBAD7
:10A8D000E4EE880A80F84840002C00F0408132EE17
:10A8E000476AA0EE867A0121079180ED117AD8EDB2
:10A8F00001BAD0ED09AA9FEDAC9A90ED135AD8EDAC
:10A90000031AD0ED103ADFEDA95AD7ED032AD0EDA6
:10A910000C0ADFEDA78A2AEEAB4AB0EE008AB4EE4D
:10A92000C94AB0EE083AF1EE10FA74EE254A37EE55
:10A93000637AABEE483A25EE212A2BEE0B1A6AEE2B
:10A94000A77A88BFB0EE494AE4EE024A27EE01BA80
:10A95000F4EEC97AF1EE10FAE3EE0B3A98BFB0EEDE
:10A96000679A77EEE46A29EE226AF5EEC00AE3EE12
:10A97000866AF1EE10FAC0ED133A66EEA8BA00F15D
:10A98000DE80B7EE009AF4EEC90AF1EE10FA40F359
:10A99000EB80F0EE490AF0EE4C2A80ED0C9A80ED47
:10A9A0000DCAFDEEEAAA90ED0BBA059CD0ED051A92
:10A9B00090ED062A90ED077ADFED7E5A9FED7E3A04
:10A9C0001AEE906AB7EE005A35EE4B4A06F00105D2
:10A9D00010A9661E35EEAB1A74EEA55A34EE818AC4
:10A9E000FDEEE53AFDEEC88A13EE904A18EE90BAF5
:10A9F000141BA2EB0B0A04F1FF3B0BEA060B3440DD
:10AA000033F91BB033F9144006EE90BA07EE904AC2
:10AA1000B8EEE36AB8EEE69AF8EEE7AA75EEC65A23
:10AA200039EE6A5AF8EEE83AE5EE85AA0AF1FF39FE
:10AA300009EA06090AEA060A38EE638A01F1080BF8
:10AA400070EEA26A6AEE838A0DB9F1EE688AB0EE02
:10AA5000616A98EEA06A33F91A4007EE904AEAEE6E
:10AA6000061A33F919400AEE904A31EEC29AF8EE0E
:10AA7000E75AAAEE092AB8EEEA5A32EE476A51EDD1
:10AA8000023A51ED010AAAEE067A75EE658AE7EE02
:10AA90000B3AE8EE285AE7EE040A25EE838A41EDE8
:10AAA000023A41ED010A0DB9B1EE488AF0EE617A41
:10AAB000D8EE267A0BF108010DF5107A71EE2B5ABB
:10AAC000EAEE271A8A455BED023A1BED019A71EE18
:10AAD000C20AB0EE635AAAEE202A76EEA26A32EEDD
:10AAE000471AF0EE660AAAEE017AA7EE0B5AA7EE15
:10AAF000049A0BED025A0BED019A7FF46BAFC0ED97
:10AB00000C6AC0ED051A80ED062A80ED077AD7EDB4
:10AB1000017AFFF7DFB980ED0CCA80ED0DCAF0EEC7
:10AB20004C8A9FED242AD9E580ED0E8A78E53AEE2D
:10AB3000075AA1EE45AA6FE5D0ED0D8ACEE580ED6E
:10AB40000CCA80ED0DCAF0EE4C0ADFED1A2A28E798
:10AB500080ED0DCAB0EE4C6ADFED169A4FE477EE49
:10AB6000026AA0EEE67ABEE6D0ED0D2A19E73BEECA
:10AB7000888AE5EEC8BAFFF7E5BB089A9068804777
:10AB8000FFF7FEB9089C21688847FFF7EAB900295A
:10AB90003EF4FEAFFEF7EEBF5FF36E3C0D661900AC
:10ABA0003333332F9A99993E0080BB460000804290
:10ABB0000000803C00000000000000382DE9F04F4C
:10ABC0002DED108BADF50F7D0446069041F28430DB
:10ABD0000F46215CD4ED087A09920C9331B3F5EE5F
:10ABE000C07AF1EE10FA21DD41F26432069DB34BDA
:10ABF000AC58DFEDB35A97ED076A83FB0420A0EB56
:10AC0000E47207EE102A05F59B58D8ED076AB8EEF6
:10AC1000C70A70EE660AE0EEA56A86EEA71AC8EDCE
:10AC2000076A61EE061AC7ED011A01E0D7ED011AB5
:10AC3000069D41F2853927EEA12A41F2583B15F8CD
:10AC4000096055F80B300796FCEEC22A0CEE903ADC
:10AC5000CDED082AC6B197F824001C4640340228DE
:10AC60000CEE904A45F80B4000F0A9871CEE901AB4
:10AC7000089A914208D98E1A069941F258358E46A3
:10AC80000CEE906A4EF80560069897ED003ADFEDFD
:10AC90008D3A4269D7F814909FED8B6A00F59C5469
:10ACA000083494ED004A0A9473EE444AC0F81C90AC
:10ACB00064EEA38A02F5206B92ED0C8A92ED209A45
:10ACC00092ED34AA92ED485AD2ED5CAA92ED70BA98
:10ACD000D2ED84BA92ED98CA36EE08DA02F5207207
:10ACE0007DEE09DA93453DEE8AEA7EEE05EA3EEE18
:10ACF000AAFA7FEE0BFA7FEEAB7A37EE8C6ADBD1E5
:10AD0000F7EE005AB4EEE56AF1EE10FAB8BFB0EE15
:10AD1000656A6E4D06989FED6E3A97ED027A6D4E1C
:10AD2000DFED683AD6F800C0049716EE101AB6EEBA
:10AD3000000AA5EB510E04EE90EA66EE006A00F5FB
:10AD4000995426EEA48AB7EE089A04F1180EA4EEE0
:10AD5000C89A41F22C23C5189EED00AAAC68039452
:10AD6000F0EE4A7AD4EE897A00F59C5641F25C32D4
:10AD70000146A7EE83AA019500F59A5AC3588EEDB5
:10AD800000AA6AEE07AA0AF1100BC7ED02AAD6EDD7
:10AD9000044A86586A689AED047ACDF814B001F531
:10ADA0009A5503999FED4C1ADFF83C91DFF83C81EE
:10ADB000DFED4A1A9FED4A2ADFED4A2ADFED420A0B
:10ADC000DDF824B000F591503AEEE4BA00F1180431
:10ADD000A1EB060A6BEE23BA0B94143500200F4644
:10ADE000CDF808A018E0B7EE00CAB4EECC7AF1EEC8
:10ADF00010FAC4BFB0EE4C7AC5ED000A974223F8B2
:10AE0000121014BF01320022A64534EE284A74EE17
:10AE1000AB4A00F101006BD03BF920A0B4EC01CAB1
:10AE200095ED00EA09FB0C8C0DEE10AA06EE10CA97
:10AE3000964288BF02996CEE24EAB8EECDFA64EE31
:10AE400002FAF8EE465ABEEE000A8CBF8918911B32
:10AE5000EFEE2FEA33F91110A5EEA10A0DEE901ACC
:10AE6000E0EE22EA67EE013AB8EEED3AB6EE008A7D
:10AE7000E3EE23EAF3EE0B6A2EEE889AB2EE02AA14
:10AE800069EE097A37EE0E7A37EEA65AE7EE8A6A4D
:10AE900065EE09AAB5EEC07A8AEEA6BAF1EE10FA0E
:10AEA000BEEEE8BA1BEE10AA0AF30F0109B29AD55A
:10AEB000C5ED000A9FED047AA0E700BF5655555531
:10AEC0006F12033B0000803C00000000DF59375F39
:10AED000CDCC4C3D00000020000080380000802FC9
:10AEE00000000038000000390D6619005FF36E3C69
:10AEF000DDE90479019CCB4D62600026C5F800C0F5
:10AF000089ED007A10A90DF138088E4641F8086CD9
:10AF100041F8046C4EF8086B70464EF8046C40F82B
:10AF2000086B01F1300B40F8046C01F1380A0E6136
:10AF30004E618E61CE610E624E6290AC40318C42A9
:10AF40004BF8086C4BF8046C4AF8086C4AF8046C2F
:10AF5000DBD1089E002E40F0FD82079CB0EE6CDA3B
:10AF6000002C00F003831DEE105A402D8CBF0025ED
:10AF700001250D954FF0000BDFEDABDA0699CDF80A
:10AF800008C0CDE904BBDDF81CC0D7ED017ACDF8CF
:10AF90001C80DFEDA6FA9FEDA6FADFEDA6EA9FED95
:10AFA000A6EA9FEDA60ADFF8B0E2DDF82880B0EE51
:10AFB0006DCA01F62C0090F82040002C00F0F282BF
:10AFC000012C00F05984022C00F04881BCF1000FE4
:10AFD00032D0D0ED0CAAF5EEC0AAF1EE10FA40F393
:10AFE0002F8490ED094ADFED968A27EE843AB8EE79
:10AFF0004D9A33EE686AB4EEC96AF1EE10FA09D8D8
:10B0000073EE284A049EB4EE649AF1EE10FA48BF3B
:10B0100066460496F8EE6C2AB4EEE26AF1EE10FA97
:10B020000AD89FED87BA33EE0B8AF4EEC82AF1EE08
:10B0300010FA48BFD0ED0ADA019D50308542BAD1EE
:10B04000059BDDF808E0DDF81C8013B1754AC2F8F5
:10B0500000E00D98002840F0AD85F5EEC0DAF1EE85
:10B0600010FA05DD069EB0EE6D0AF5680420A847CB
:10B07000049B002B40F099850699D7ED069ADFEDE9
:10B0800071CA0C9A704D714C9FED71DA0B9EDDF810
:10B0900024A001F59D5901F5995099ED003AD0EDA4
:10B0A00007FA90ED08FAD0ED09EA90ED0AEA90ED82
:10B0B0000BCA1C3079EEC3DA3FEE8F1A6DEEAC1A74
:10B0C0003FEEAF0A0023934602F1020EF3EE000AB0
:10B0D000F3EE0B3AF2EE02BAF0EE4C7A98ED00AADB
:10B0E00098ED017A3AF92310E1EE0E7A08F108089A
:10B0F0007AEE0A6A77EE07AA76EEE75A23EE205A2E
:10B1000035EEAA4AFDEEC58A24EE2E6A18EE902A84
:10B11000AFEE86EA920005EB020902EE101AAEEEDF
:10B1200000CA111D05EB010CAFEE86EA2244214452
:10B1300080ED04CA80ED03EAA6EC016AD9ED004A6D
:10B14000DCED002A92ED00BA91ED008AB8EEE89AA3
:10B1500072EEE4CA75EE499A78EE4BDAE9EEAC4A43
:10B16000ADEEA9BAB8EEC2FA26EEA47A2AEEA4AAE7
:10B170002FEE0D2AF0EE477AE2EE0B7AA2EE0BAA42
:10B1800067EEA76A6AEE0AAAB0EE635AF0EE635A57
:10B1900036EEA34AA6EEAB5A7AEEA38AEAEEAB5A93
:10B1A00024EE279A68EE8A4AC9EE052A84EEA5BAEB
:10B1B000FEEEE82ABEEEE8BA12EE902A02F30F0184
:10B1C0001BEE109A09F30F0C2BF823102EF823C056
:10B1D0000133402B33EE213A7FF47EAF0FCF069E32
:10B1E0000A9C089D41F2B83A06F59B5B46F80A5066
:10B1F0000FC40FCF0FC497E80F00DBF80050154FB6
:10B200004035BD4284E80F00CBF8005004D941F22C
:10B210008630069A002313540DF50F7DBDEC108B7C
:10B22000BDE8F08F00000020000000003889B8421F
:10B230000000B242C92F163C49265F428FBA214115
:10B24000000080420000803C847E0108C87E010826
:10B250000000003800770100DF59375FD0ED0A8A1F
:10B2600097ED0A1AC34EC449DFEDC41A90ED102AB7
:10B27000D0ED11BAD0ED0E0AB0EE4F6AA8EEAF6A6B
:10B28000F7EE006ABDEEC68A61EE013AF8EEC82A12
:10B2900018EE10AA36EE629AB3EE043ABEEECC9ADD
:10B2A000B0EE66AAA3EE83AA06EB8A0919EE105A3D
:10B2B00099ED007A01EB850B9BED005A67EE2EAA03
:10B2C00086EE8ABA6AEE858AB0EE404A68EEA84AEF
:10B2D00080ED01BAA4EE8E4A3BEEC21AE4EE241AC7
:10B2E000B0EEC12A61EEA83AF0EE661A73EE8B2A30
:10B2F000C0ED003AE3EEA21A86EEA1AA80ED02AA02
:10B30000D7ED045A85EE826AB4EEE66AF1EE10FAE1
:10B31000C8BFB0EE666A30EE865A80ED0F6AB4EEB2
:10B32000E65AF1EE10FA80ED0E5A26DD944C029E9C
:10B33000944D90F84810DFED940A9FED948AC0ED8B
:10B3400010BA05FB064503EE105A35EE665AB8EE04
:10B35000439A81F00104029580ED0E5AA9EE208AED
:10B3600080F84840002C00F01A8436EEEB7AE8EEC4
:10B3700007BA01210591C0ED11BA98ED01BAD0EDDF
:10B3800009AA9FED834A9FED832A90ED138AD8ED99
:10B39000038AD0ED104AD7ED030A90ED0C6A9FEDB9
:10B3A0007E1A6AEE8B5AB0EE009AF4EEC45AF0EEB2
:10B3B000081AF1EE10FA25EE057A35EE823A7BEEA8
:10B3C000E4BAE5EE491A68EE286A6AEEA77A8CBFFD
:10B3D000B0EE445AB0EE655A2BEE87BAA5EE263A87
:10B3E000F4EEC47AF1EE10FAE1EE8B4A98BFB0EEBB
:10B3F000674A37EEC32A24EE204AB5EEC06AA4EEAF
:10B40000842AF1EE10FAC0ED134A22EE017A00F11F
:10B41000B783B7EE008AB4EEC86AF1EE10FAD1BF76
:10B42000D0ED0D9A80ED0DCAB0EE486AF0EE4C9A60
:10B43000FDEEEAAAD0ED0B1A039D90ED035AD0ED74
:10B44000045ADFED564A9FED569A1AEE906AB7EE0F
:10B45000002A06F0010AB94623EE8A4A72EE618A92
:10B4600073EEA33A6E1E10A9B3EE048AF6EE000A3C
:10B47000B7EE081A5746CB4674EE836AB0EE65BA4B
:10B48000FDEEE6BA79EE86AA1BEE904A141B651E05
:10B490003540344033F915A033F914900AEE10AA60
:10B4A00007EE909AF8EEEBBAF8EEE77AB8EECAAA91
:10B4B00076EEEB6A7AEE67BAA5EE22BAE6EEAB7AE2
:10B4C00074EE874A67EE897A0FB9F1EE677AC0EDBC
:10B4D0000CAADBED0ABA11ED02AA51ED016A6BEE7E
:10B4E000ABBA97EE86BA08310DF5107AB0EE426A23
:10B4F000ABEE886AABEE045A16EE104AAEEB54057A
:10B50000F0EE4B7A26EE206A0BEE105A2BEE466ACE
:10B51000F0EE45BAA7EE845AF0EE417AE6EE0B7AE9
:10B52000B0EE6A6A67EE8BAAEBEEA35A6AEEABBA8C
:10B53000ABEEA1AAEBEEA86A01ED04AA41ED036A05
:10B540008A4599D180ED035AC0ED045A5F46DBED80
:10B55000017A3BE51CEE905A079CB5FBF6F106FB21
:10B5600011500DEE100A002C7FF4FDAC079E0D96D5
:10B5700000E500BFEC830108E87F0108DB0F4940CC
:10B580005FF36E3C0D6619003333332F9A99993E61
:10B590000080BB46000080420000803C00000000AC
:10B5A0000000003890ED11AAD0ED10BAD7ED042AB2
:10B5B00097ED0ABAD0ED0A4AD0ED0E1A3AEE6B2A90
:10B5C000B7EE007AB0EEC23A82EE834A77EE4B8A4B
:10B5D000B4EEC74AF1EE10FAA4EEA8BAC8BFB0EEB6
:10B5E000474A31EE848A2BEE0B6AB4EEC78AF1EE3D
:10B5F00010FA80ED0F4A66EE0BAA40F3AD82954D2E
:10B60000029E954C90F848909FED949ADFED943A05
:10B6100080ED10AA05FB064105EE901A78EE476A08
:10B62000F8EE650A89F00105B0EE491A0291C0ED05
:10B630000E6AA0EEA31A80F84850002D00F08F8209
:10B6400077EE4ABAA1EE2BAA0124059480ED11AA47
:10B65000D8ED012A90ED09AA9FED82BA90ED134A28
:10B66000D8ED038A90ED0E3AD0ED104A9FED7E7A28
:10B6700090ED118AD7ED031A90ED0C2A9FED7B6AAD
:10B680002AEE229AF0EE003AB4EECB9AF0EE085A87
:10B69000F1EE10FA39EE075A64EE286A38EE641AB1
:10B6A000E3EE635A63EE030A6AEE277A88BFB0EED0
:10B6B0004B9AA9EE265A61EE20BAF4EECB7AF1EE5F
:10B6C00010FAEBEEA54A98BFB0EE67BA77EEC52A3E
:10B6D0002BEE21BAB5EEC02AE4EE8B2AF1EE10FA79
:10B6E000C0ED134A22EE864A00F12D82B7EE007AB1
:10B6F000B4EEC72AF1EE10FA40F33682B0EE472AD4
:10B70000F0EE4C8A80ED0C7A80ED0DCABDEECAAA2F
:10B7100090ED0B6A0399DFED566A9FED563A1AEEEB
:10B72000106AB7EE008A38EE469A06F001054E1E02
:10B7300010A976EE843A75EE265A75EE231AFDEEC0
:10B74000E50ABDEEE11A10EE904A11EE10BA141B94
:10B75000A2EB0B0A04F1FF3B0BEA060B344033F972
:10B760001BB033F9144006EE90BA07EE904AF8EE9B
:10B77000E0BAF8EEE72AF8EEE64A35EEEB8A34EE68
:10B78000E2AAB8EEC17AE8EE0A2A0AF1FF3909EA1C
:10B7900006092AEE82BA71EEC75A0AEA060A01F1D0
:10B7A000080B32EE282A62EE831A0DB9F1EE611A07
:10B7B00033F91A4051ED02BA11ED011A00EE904A28
:10B7C00033F9194006EE904AF8EEE07AF8EEE64AD0
:10B7D00061EE8B2A34EEE7BAB0EE6B8AA2EE868A6F
:10B7E000E5EE8B7AA2EE891A27EE83AA01ED028A92
:10B7F00001ED011A0DB9B1EE4AAA2AEE827A5BED8B
:10B80000025A5BED011A6AEE070A73EE846AF0EEE3
:10B81000653AE0EE863A0BF108010DF5107AE0EE9C
:10B82000891A8A4532EE282A4BED023A4BED011A6D
:10B830007FF47FAF80ED0C2AD7ED017AFFF7C6BB0E
:10B8400090ED0D5AB5EEC05AF1EE10FA3FF7C9ABC4
:10B85000FFF7F2BB0D6619005FF36E3C9A99993EB3
:10B860003333332F0080BB46000080420000803C11
:10B87000000000000000003890ED117AD0ED102A91
:10B8800097ED043AD7ED0A1AD0ED0E5A90ED0A9AC8
:10B8900037EE625AB7EE002AB0EEC54AC3EE043A5C
:10B8A00072EE618AF4EEC23AF1EE10FAC8BFF0EE21
:10B8B000423A35EEA3BAE9EE281AB4EEC2BAF1EE76
:10B8C00010FAC0ED0F3A80ED0EBA21EEA1AA26DDE6
:10B8D000BD4C029EBD4D90F848109FEDBD8ADFED36
:10B8E000BD0A80ED107A05FB064501EE105A3BEECD
:10B8F00042BAF8EE414A81F00104029580ED0EBA99
:10B90000E4EE880A80F84840002C00F0408132EED6
:10B91000476AA0EE867A0121059180ED117AD8ED73
:10B9200001BAD0ED09AA9FEDAC9A90ED135AD8ED6B
:10B93000031AD0ED103ADFEDA95AD7ED032AD0ED66
:10B940000C0ADFEDA78A2AEEAB4AB0EE008AB4EE0D
:10B95000C94AB0EE083AF1EE10FA74EE254A37EE15
:10B96000637AABEE483A25EE212A2BEE0B1A6AEEEB
:10B97000A77A88BFB0EE494AE4EE024A27EE01BA40
:10B98000F4EEC97AF1EE10FAE3EE0B3A98BFB0EE9E
:10B99000679A77EEE46A29EE226AF5EEC00AE3EED2
:10B9A000866AF1EE10FAC0ED133A66EEA8BA00F11D
:10B9B000DE80B7EE009AF4EEC90AF1EE10FA40F319
:10B9C000EB80F0EE490AF0EE4C2A80ED0C9A80ED07
:10B9D0000DCAFDEEEAAA90ED0BBA039CD0ED051A54
:10B9E00090ED062A90ED077ADFED7E5A9FED7E3AC4
:10B9F0001AEE906AB7EE005A35EE4B4A06F0010592
:10BA000010A9661E35EEAB1A74EEA55A34EE818A83
:10BA1000FDEEE53AFDEEC88A13EE904A18EE90BAB4
:10BA2000141BA2EB0B0A04F1FF3B0BEA060B34409C
:10BA300033F91BB033F9144006EE90BA07EE904A82
:10BA4000B8EEE36AB8EEE69AF8EEE7AA75EEC65AE3
:10BA500039EE6A5AF8EEE83AE5EE85AA0AF1FF39BE
:10BA600009EA06090AEA060A38EE638A01F1080BB8
:10BA700070EEA26A6AEE838A0DB9F1EE688AB0EEC2
:10BA8000616A98EEA06A33F91A4007EE904AEAEE2E
:10BA9000061A33F919400AEE904A31EEC29AF8EECE
:10BAA000E75AAAEE092AB8EEEA5A32EE476A51ED91
:10BAB000023A51ED010AAAEE067A75EE658AE7EEC2
:10BAC0000B3AE8EE285AE7EE040A25EE838A41EDA8
:10BAD000023A41ED010A0DB9B1EE488AF0EE617A01
:10BAE000D8EE267A0BF108010DF5107A71EE2B5A7B
:10BAF000EAEE271A8A455BED023A1BED019A71EED8
:10BB0000C20AB0EE635AAAEE202A76EEA26A32EE9C
:10BB1000471AF0EE660AAAEE017AA7EE0B5AA7EED4
:10BB2000049A0BED025A0BED019A7FF46BAFC0ED56
:10BB30000C6AC0ED051A80ED062A80ED077AD7ED74
:10BB4000017AFFF743BA80ED0CCA80ED0DCAF0EE22
:10BB50004C8A9FED242AD9E580ED0E8A78E53AEEED
:10BB6000075AA1EE45AA6FE5D0ED0D8ACEE580ED2E
:10BB70000CCA80ED0DCAF0EE4C0ADFED1A2A28E758
:10BB800080ED0DCAB0EE4C6ADFED169A50E477EE08
:10BB9000026AA0EEE67ABEE6D0ED0D2A19E77BEE4A
:10BBA000A66AE8EE66BAFFF7E4BB069A906880479B
:10BBB000FFF762BA069C21688847FFF74EBA002952
:10BBC0003FF462A8FFF752B85FF36E3C0D661900B0
:10BBD0003333332F9A99993E0080BB460000804250
:10BBE0000000803C000000000000003810B591F813
:10BBF0002C4014B9FDF766FF10BDFEF7DFFF10BD46
:10BC0000014B01608360704700401C4690F906308C
:10BC10002DE9F04143B305680022B7EE007ABFEE8C
:10BC2000006AD0ED027A90F9056037EE870A164473
:10BC3000C6EE006A744204F01F0706F01F0358BFE7
:10BC40007B4203EB830605EB06180132D8ED0C0AA4
:10BC5000C8ED0D6AF4EEC70AF1EE10FAC8BF88ED20
:10BC60000C7A84799442DCDC0027D0F810580379F0
:10BC7000C7600024C0F81458437184710E78002EF8
:10BC800000F08480B84625460B4600F11006F7EE1A
:10BC9000005A17E0D0F8142806EB0214013202F023
:10BCA0007F0284ED001AC4F804E02772C4F80CC0C7
:10BCB000C0F814280F780135AF4203F1100365DD99
:10BCC00090F9064093ED011AD3F808E01F7BD3F8F2
:10BCD00010C0202CDED090F90420046802EB820210
:10BCE00004EB0212D2ED0C1AF5EEC01AF1EE10FAC6
:10BCF000D0DC92ED0D2AB5EEC02AF1EE10FAC9DCC7
:10BD0000D0ED022A85EEA23A01351033F5EEC01AC5
:10BD1000F1EE10FA48BFC2F8308082ED0D3A90F98A
:10BD2000042002EB820204EB021282ED091A90F960
:10BD3000042002EB820204EB0212C2F828E082F82F
:10BD4000207090F9047007EB870204EB0214C4F82A
:10BD50002CC0D0ED033A90F904208479B4EEE31AB4
:10BD6000F1EE10FA02F10102C8BF80ED031AD2F120
:10BD7000000C0CF01F0702F01F0204F1010458BF71
:10BD80007A42027184710F78AF4299DCBDE8F0818C
:10BD9000F0B485790D70002D00F0C98001EB051518
:10BDA0006B1AA3F110021609013616F00307046896
:10BDB00090F9050050D0012F33D0022F18D0434204
:10BDC00003F01F0200F01F0658BF564206EB86071D
:10BDD00004EB071C0130DCF824309CF820604B6039
:10BDE000DCF828208A60DCF82C700E7341F8107F94
:10BDF000434203F01F0600F01F0258BF724202EBDD
:10BE0000820704EB071C0130DCF824309CF820602A
:10BE10004B60DCF828208A60DCF82C700E7341F847
:10BE2000107F434203F01F0600F01F0258BF72420A
:10BE300002EB820704EB071C0130DCF824309CF88D
:10BE400020604B60DCF828208A60DCF82C700E73D0
:10BE500041F8107FA9426AD0D0F1000C0CF01F030A
:10BE600000F01F0658BF5E4206EB860204EB021C80
:10BE7000DCF824709CF820304F60DCF828600B73ED
:10BE8000431C5A4202F01F078E6003F01F020E4649
:10BE900058BF7A42DCF82CC046F810CF02EB82077C
:10BEA00004EB07120133576A92F820C07760976A53
:10BEB000B7605F4286F80CC0D2F82CC046F810CFAD
:10BEC00007F01F0203F01F0358BF534203EB830721
:10BED00004EB0713D3F824C093F82020C6F804C05D
:10BEE000D3F828C03273C21C574207F01F0702F074
:10BEF0001F0258BF7A42C6F808C002EB8207DB6A0D
:10BF0000336104EB071C01F13002DCF824609CF87B
:10BF100020304E63DCF828708F6381F83C3040316C
:10BF2000DCF82C601661A94200F1040094D1F0BC49
:10BF3000704700BFF0B4024690F90600146820284C
:10BF400070D092F9043003EB830604EB0617D7EDAB
:10BF50000C7AF5EEC07AF1EE10FA4FF0000516DD1E
:10BF600000285FD1D2F8144802F1100303EB041546
:10BF7000013404F07F0685ED000AC5ED010A29723F
:10BF800085ED031A0020C2F81468F0BC704797EDE5
:10BF90000D7AB5EEC07AF1EE10FAE1DCD2ED026A6C
:10BFA000B7EE006AC6EE261AF5EEC07AF1EE10FA88
:10BFB00048BF3D63C7ED0D1A92F904C00CEB8C002D
:10BFC00004EB001383ED090A92F9045005EB850692
:10BFD00004EB0617C7ED0A0A87F8201092F904103F
:10BFE00001EB810004EB001484ED0B1AD2ED030A7F
:10BFF00092F904309579B4EEE00AF1EE10FA03F10B
:10C000000103C8BF82ED030A5E4206F01F0703F07A
:10C010001F0105F1010558BF794211719571012089
:10C02000F0BC704792ED022A92F905C0F7EE002AA3
:10C0300032EE223AFFEE003A83EE834A0CEB8C009C
:10C0400004EB0013D3ED0C4A83ED0D4AF4EEE24A03
:10C05000F1EE10FAC8BFC3ED0C2A92F9056097798A
:10C060000136754205F01F0507F1FF3C06F01F037E
:10C070005FFA8CF058BF6B4253719071002800F04A
:10C08000AB8010F0030600EB03059FED555A47D037
:10C09000012E2DD0022E15D05F4207F01F0603F0AF
:10C0A0001F0058BF704200EB800704EB071CDCED5B
:10C0B000095AB4EEE55AF1EE10FA03F10103B8BFE4
:10C0C000B0EE655A5E4206F01F0703F01F0058BF2E
:10C0D000784200EB800604EB061CDCED097AB4EE36
:10C0E000E75AF1EE10FA03F10103B8BFB0EE675A58
:10C0F0005F4207F01F0603F01F0058BF704200EBBD
:10C10000800704EB071C9CED097AB4EEC75AF1EEE8
:10C1100010FA03F10103B8BFB0EE475A9D4258D060
:10C120005E4206F01F0703F01F0058BF784200EB85
:10C13000800604EB061CDCED096AB4EEE65A581CD6
:10C14000F1EE10FAB8BFB0EE665A474207F01F078B
:10C1500000F01F0658BF7E4206EB860704EB071C63
:10C160009CED096AB4EEC65AF1EE10FA00F1010036
:10C17000B8BFB0EE465A464206F01F0700F01F0057
:10C1800058BF784200EB800604EB061CDCED091A70
:10C19000B4EEE15AF1EE10FA03F10307B8BFB0EEC6
:10C1A000615A784200F01F0607F01F0758BF774218
:10C1B00007EB870C04EB0C1090ED092AB4EEC25A81
:10C1C000F1EE10FA03F10403B8BFB0EE425A9D42FB
:10C1D000A6D182ED035AC5E69FED015AF9E700BFEB
:10C1E0000000000090F90630002B00F0C580D0ED73
:10C1F000027A0279B7EE007A37EE870ABFEE006A5C
:10C20000C6EE006A511E4BB2002BBCBF02F11F03E9
:10C210005BB20168037103EB830201EB021CDCEDEE
:10C220000C0ACCED0D6AF4EEC70AF1EE10FAC8BFA5
:10C230008CED0C7A83795A1ED3B28371002B00F0F7
:10C24000B48070B490F90520DFED5B1A13F003059C
:10C2500003EB020432D0012D18D0022D40F08E8065
:10C26000554205F01F0602F01F0358BF734203EB4F
:10C27000830501EB051CDCED092AF4EEE21AF1EE70
:10C2800010FA02F10102B8BFF0EE621A564206F04F
:10C290001F0502F01F0358BF6B4203EB830601EB3F
:10C2A000061C9CED093AF4EEC31AF1EE10FA02F105
:10C2B0000102B8BFF0EE431A944258D0554205F03F
:10C2C0001F0602F01F0358BF734203EB830501EB07
:10C2D000051CDCED093AF4EEE31A531CF1EE10FAFA
:10C2E000B8BFF0EE631A5E4206F01F0603F01F05AA
:10C2F00058BF754205EB850601EB061C9CED094A0B
:10C30000F4EEC41AF1EE10FA03F10103B8BFF0EE37
:10C31000441A5D4205F01F0603F01F0358BF734225
:10C3200003EB830501EB051CDCED094AF4EEE41A8E
:10C33000F1EE10FA02F10306B8BFF0EE641A734290
:10C3400003F01F0506F01F0658BF6E4206EB860C71
:10C3500001EB0C1393ED095AF4EEC51AF1EE10FA45
:10C3600002F10402B8BFF0EE451A9442A6D1C0ED26
:10C37000031A70BC0120704718467047564206F0F9
:10C380001F0502F01F0358BF6B4203EB830601EB4E
:10C39000061C9CED092AF4EEC21AF1EE10FA02F125
:10C3A0000102B8BFF0EE421A5AE79FED031A80ED82
:10C3B000031A0120704700BF00000000F0B44FF0E6
:10C3C000000C00F11004B7EE006AD0F81438D0F871
:10C3D0001028991A4A0611D090F90650202D0DD038
:10C3E00090F90460056806EB860705EB0711D1EDAF
:10C3F0000C7AF5EEC07AF1EE10FA01DDF0BC704770
:10C4000091ED0D7AB5EEC07AF1EE10FAF6DCD0F8C7
:10C410001438D0F810289E1A7306F8D0D0ED026AAE
:10C42000D0F8107886EE260A04EB0712013707F0E1
:10C430007F03167A5768F5EEC07AF1EE10FAD2ED66
:10C44000000AD268C0F8103848BFC1F830C081ED8A
:10C450000D0A90F9041001EB810305EB0311C1ED06
:10C46000090A90F9043003EB830105EB01139F6285
:10C4700083F8206090F9046006EB860705EB07154A
:10C48000EA6290ED031A90F904308279F4EEC10A61
:10C49000F1EE10FA03F10103C8BFC0ED030A5942DF
:10C4A00001F01F0603F01F0702F1010258BF774297
:10C4B0000771827189E700BF90F9063010B44BB361
:10C4C00004680022B7EE007ABFEE006AD0ED027A6F
:10C4D00090F905C037EE870A9444C6EE006ADCF195
:10C4E000000101F01F010CF01F0358BF4B4203EB8A
:10C4F000830104EB011C0132DCED0C0ACCED0D6A6A
:10C50000F4EEC70AF1EE10FAC8BF8CED0C7A83790D
:10C510009342DBDC0024D0F810180279C4600023B9
:10C52000C0F81418427183715DF8044B704700BF66
:10C53000024B034802221A8001F0DCBF34000020C5
:10C540002414002070B543F61463204C43F6B16206
:10C5500005460E461E48A25CE158FCF7DDF81D4872
:10C56000D0ED007AF5EEC07AF1EE10FA0ADD9FED1B
:10C570001A7A77EEC76AF4EEC77AF1EE10FAC0EDD8
:10C58000006A11D9154C164916482A463346FFF75A
:10C590002DFB2288A2B101222021134808F0B2FB12
:10C5A00023885D1E258070BD43F69E6C43F69D6E0C
:10C5B00014F80C1004F80E10FF2204F80C20E1E728
:10C5C00020210948BDE8704008F09CBB24140020DD
:10C5D00038450020C4520020000080423400002072
:10C5E000F41300203800002000000240034808B582
:10C5F00004F038FE024802F07BFDFEE73000002028
:10C6000024140020704700BFFEE700BFFEE700BF14
:10C61000FEE700BFFEE700BF704700BF704700BFE6
:10C62000704700BF08B5044801F06CFF034A136867
:10C630000133136008BD00BF24140020E056002021
:10C6400070B5A2B007F0EEFD4FF000604FF400416E
:10C6500007F066FECC4B00220DA81A6007F0C2F866
:10C66000002840F0BC8101217E2008F0C3FC40F28C
:10C6700002340C220021C548019408F049FB0C2229
:10C680000121C24808F044FB0C220821BF4808F0F1
:10C690003FFB0C220921BD4808F03AFB0C220A217D
:10C6A000BA4808F035FB0C220E21B84808F030FBE0
:10C6B0000C220F21B54808F02BFB4CF2037569469C
:10C6C000B248009508F0BEF90C220021B04808F0ED
:10C6D0001FFB0C220121AE4808F01AFB0C22072197
:10C6E000AB4808F015FB0C220821A94808F010FB04
:10C6F0000C220921A64808F00BFB0C220A21A448B1
:10C7000008F006FB0C220B21A14808F001FB0C22CB
:10C7100011469F4808F0FCFA0C220D219C4808F0B5
:10C72000F7FA0C220E219A4808F0F2FA0C220F2197
:10C73000974808F0EDFA4FF68376694694480096DC
:10C7400008F080F90C220021924808F0E1FA0C224E
:10C750000121904808F0DCFA0C2202218D4808F0F3
:10C76000D7FA0C2203218B4808F0D2FA0C220421BC
:10C77000884808F0CDFA0C220521864808F0C8FA4E
:10C780000C220B21834808F0C3FA0C221146814881
:10C7900008F0BEFA0C220D217E4808F0B9FA0C22EE
:10C7A0000E217C4808F0B4FA0C220F21794808F0D9
:10C7B000AFFA4FF63F0369467648009308F042F916
:10C7C0000C220021744808F0A3FA0C2201217248BF
:10C7D00008F09EFA0C2202216F4808F099FA0C2208
:10C7E00004216D4808F094FA0C2205216A4808F0EB
:10C7F0008FFA0C220821684808F08AFA0C220F21CF
:10C80000654808F085FA48F2371269466248009296
:10C8100008F018F90C220521604808F079FA0C227A
:10C8200006215E4808F074FA602469465B4800946B
:10C8300008F008F90C220021594808F069FA01248F
:10C8400069465748009408F0FDF82146204608F054
:10C85000DDFB0221062304250691CDE90A110C9186
:10C860004FF4C072402108264FF0100C0793099333
:10C8700008951B9100254FF400631C924FF4005162
:10C8800006AA17A8CDE91744CDE9196C1D95CDE985
:10C890001E35CDE9201208F019F8CDE90246CDE9A0
:10C8A00004452021012008F0ADF804460028F8D105
:10C8B00002A808F08DF808260220CDE9020601251D
:10C8C000059404952021012008F09CF804460028D6
:10C8D000F8D102A808F07CF84FF0030C0821CDE94C
:10C8E00002C10123059404932021012008F08AF855
:10C8F0000028F9D102A808F06BF8082604200122CC
:10C9000040F23125CDE90206CDE9042520210120A0
:10C9100008F078F80028F9D102A808F059F840F298
:10C92000AB2008F067F82021012008F06BF80546DD
:10C930000028F8D10121084608F05CFB20264FF0C2
:10C94000010C1848184C17A9CDE9176C08F07AF8B3
:10C95000164B174E1D8020464FF400024FF05041F9
:10C96000FCF7C8FC2146134A134800F057F9134856
:10C97000134A14494160F023072182F8233085606F
:10C98000114A016022E000BFE0560020000C024086
:10C99000001002400014024000180240000402404F
:10C9A000000802400000024038000020340000204F
:10C9B00031C50008F41300202414002010E000E02A
:10C9C00000ED00E01FBF020045C500084BF68031B6
:10C9D0000648A66004F0FCFB28B122B070BD0DA88B
:10C9E00007F028FB3FE6FFF701FE00BF3000002004
:10C9F00008B5FFF725FE044D044C284603F060FA05
:10CA00002046FFF7DBFCF8E7241400204C00002050
:10CA1000044A43F6AA631068C15A09B93022C252C7
:10CA2000704700BFD8520020044B43F69D601B683E
:10CA300043F69E61FF221A545A547047D852002080
:10CA40001B4B1A6802F57A532C33D3ED007AF5EEBE
:10CA5000C07AF1EE10FA01DD04280CD0B5EEC00A60
:10CA6000F1EE10FA11DD83ED000A78B943F6B06CEF
:10CA700002F80C00704743F6B061505C042804D102
:10CA8000B5EEC00AF1EE10FA0FDC7047012808D0AD
:10CA9000022808D00328E9D004280CBF0420012074
:10CAA000E4E70720E2E70520E0E783ED000ADDE7A1
:10CAB000D852002070B5544B43F69E621D68AB56A9
:10CAC00043F61461002B6C5852DB84ED050A43F6E3
:10CAD0001466AA5992F82610002942D101334B4816
:10CAE000DCB2A0FB04018E0806EB4603A4EB430076
:10CAF0005FFA80FC43F69C6443F69D66295DA85767
:10CB000001EB41030CEB4304E6B243F69E6CB042EA
:10CB100015F90C1050D08E4222D043F69E6073B2AD
:10CB20002B54D2ED057AB7EE007A37EE870A05F579
:10CB30007A5E43F6106C03EBC3118EED080A55F8CC
:10CB40000C608C0029192C4406F11400A831FFF761
:10CB50005DF894F8A85045B341F285310122725432
:10CB600070BD012942D002292CD04FF0000CC1E742
:10CB700043F69D602B5684ED050A002BA7DA43F699
:10CB80009C642E5615F804C0AA560CEB4C014800C4
:10CB9000C3B29E4213D09342E2D043F69E645BB28E
:10CBA00043F614662B55AA59BBE741F2583041F2BF
:10CBB00085333550F55470BD481CACD170BD561C42
:10CBC000E9D1CDE7124C134E2068134B0F4906FBF9
:10CBD00000305FFA80FCA1FB0C639E0806EB460167
:10CBE000ACEB410C20605FFA8CFC83E708480A4CF0
:10CBF0000168084E06FB0146F407DBB206603FF50C
:10CC00006DAF013B6BE700BFD8520020ABAAAAAAC8
:10CC1000000000200D6619005FF36E3C2DE9F04F17
:10CC20002DED028B824697B043F6106343F61464F1
:10CC30001546AB484AF803100E924AF80450A94A28
:10CC4000C0F800A00A605AF80360A749F1605AF8DA
:10CC50000370A64C7C605AF80330A548A54EA64F39
:10CC6000186101215F2008F0C5F9B04614A8B94643
:10CC700008F03CF801254022A04814A9CDE914256C
:10CC800006F1320B07F0DEFE38F8023F59F8040FC8
:10CC90003AE0B8F80240D9F80400149407F0D2FE44
:10CCA000B8F80410D9F80800149114A907F0CAFEC6
:10CCB000B8F80630D9F80C00149314A907F0C2FE96
:10CCC000B8F80850D9F81000149514A907F0BAFE66
:10CCD000B8F80A20D9F81400149214A907F0B2FE8B
:10CCE000B8F80C40D9F81800149414A907F0AAFE5B
:10CCF000B8F80E10D9F81C00149114A907F0A2FE80
:10CD000038F8103F59F8200F149314A907F09AFE31
:10CD1000D84514A9BDD10AF5785517352B46002002
:10CD200003F8010FC5F1EE01CA18D4B2052C8CBF6F
:10CD3000002401240AF5785C03F8014F0CF1310955
:10CD4000581C0C185FFA84F801EB030E9A1C5FFA6A
:10CD50008EFCB8F1050F0A4403F10300D4B28CBF76
:10CD60004FF000084FF001081A1DBCF1050F0844F0
:10CD7000C0B28CBF4FF0000C4FF0010C0A44052CE0
:10CD8000D2B28CBF0024012405288CBF00200120D2
:10CD9000052A03F1050203F1060E0A44D2B283F814
:10CDA00001C08E4403F1070C8CBF4FF0000B4FF015
:10CDB000010B83F80280052A5FFA8EF88C445FFA33
:10CDC0008CFE8CBF00220122B8F1050F8CBF4FF002
:10CDD00000084FF00108BEF1050F8CBF4FF0000EA8
:10CDE0004FF0010EDC70187183F805B09A7183F86A
:10CDF000078003F808EF4B45A2D14FF0400C3F4CA1
:10CE0000002006E007F07EFF57F8044F36F802CF07
:10CE1000484615F801BF112800F101098BF0010205
:10CE200061462046EED95A4607F06CFFB9F11A0F59
:10CE3000EAD10121084608F0DDF80121022008F0BE
:10CE4000D9F80121042008F0D5F82D4E0121082041
:10CE500008F0D0F84FF001274020012108F0CAF86F
:10CE600006F14005274815973446042303E034F8BB
:10CE7000043C54F8080C1493083414A907F0E2FD9C
:10CE8000AC42F4D143F63261FF2743F633620AF82D
:10CE9000017043F6346043F6356443F6366343F677
:10CEA000376843F6386C43F639610AF802700AF5C0
:10CEB00078520AF8007032320AF804700AF80370E7
:10CEC0000AF808700AF80C700AF801700D4F099200
:10CED0004FF02009DDF8248034460421384617E05D
:10CEE000D852002011CA000841CA000829CA000807
:10CEF000B5CA00084C7F0108807F0108001002407D
:10CF0000147F0108000C024054F8080C34F8041C8B
:10CF100098F800B007F0F0FE083440EA4B00AC424D
:10CF200008F8010BF0D1B24B00BF00BF00BF00BF3B
:10CF300000BF00BF00BF00BF083BF5D1B9F1010938
:10CF4000C8D101210220CDF8049008F053F8012146
:10CF5000042008F04FF801264FF0012514A9A54838
:10CF6000CDE9146507F06EFD022214A9A1481492C0
:10CF7000802707F067FD14A99E4814974FF40044DA
:10CF800007F060FD14A99C48149407F05BFD43F67C
:10CF90003A6C43F63B614FF0FF080AF80C8043F609
:10CFA00010600AF8018041F2342B5AF80050934C7B
:10CFB00055F80B30924E0AF18C090AF1A40708EEDD
:10CFC000103ACDF8309041F248250A97A646BEE8BF
:10CFD0000F00C9F80820C9F80C30C9F80000C9F8DA
:10CFE0000410BEE80300A7EB090CC9F814101CF0EC
:10CFF0000701C9F810004A464FF0000327D0012965
:10D000001FD0022919D0032913D004290DD00529D6
:10D0100007D0062901D012F8013B12F8010B034496
:10D020009BB212F8018B43449BB212F801BB5B44E4
:10D030009BB212F801EB73449BB212F801CB63442C
:10D040009BB212F8011B0B44BA429BB222D090460D
:10D05000907818F801BBD17898F800E092F804C0F5
:10D060005B441EFA83F310FA83F011FA80F892F809
:10D0700005B092F806E008321CFA88F31BFA83F038
:10D0800012F8011C1EFA80FC11FA8CF8BA421FFA41
:10D0900088F3DCD1DB43228B98B2824200F0BC8063
:10D0A0001C3CB44205F1FF3590D14FF07C5700266F
:10D0B000544BCAF89470CAF89870CAF89C70CAF8B1
:10D0C000A070CAF88C30AAF8A460AAF890608AF818
:10D0D000926007F017FBF32007F024FBBAF8A410C6
:10D0E000494C4A48C1EBC10297003C44844200F2DB
:10D0F0002583002900F02483454D464E07F1006B3F
:10D100003D443E440BF5C0236FF08B01A1EB0A04B4
:10D11000DDF828801C444F46381957F8041B07F0E7
:10D1200095FB4745F8D10A98A0EB090E1EF00702BF
:10D130004B464FF0000128D0012A1FD0022A19D0F7
:10D14000032A13D0042A0DD0052A07D0062A01D0BD
:10D1500013F8011B13F801CB614489B213F801BB2A
:10D16000594489B213F8014B214489B213F8017B69
:10D17000394489B213F8018B414489B213F8010B89
:10D180000A9A0144934289B222D09E469F781EF8A3
:10D1900001CB93F803B09EF8004093F804805A79CD
:10D1A000614414FA81F017FA80F11BFA81F79C7937
:10D1B000083318FA87F012FA80FE13F8017C0A9AF5
:10D1C00014FA8EFC17FA8CFB93421FFA8BF1DCD118
:10D1D000CB4399B2304607F059FB2846BAF8A41061
:10D1E00007F054FBBAF8A4600136AAF8A4601AE06C
:10D1F000A08601000004024000080240E0FF07088A
:10D20000E4FF0508020001001C000608FFFF0708F4
:10D210001A00060818000608618BA9427FF440AF87
:10D220000135AAF8A4509AF88C509AF88D109AF803
:10D230008E409AF88F009AF890709AF891209AF898
:10D240009230042D84BF04258AF88C50032984BFB2
:10D2500003218AF88D10022C84BF02248AF88E40A4
:10D26000012884BF01208AF88F00182F84BF182757
:10D270008AF89070012A1CBF00228AF89120012BA5
:10D2800018BF00230AF1A807A24CA34D18BF8AF8C3
:10D2900092300B9729260AF54C6840F61842214631
:10D2A0003846FAF775FFA8EB070C1CF007013A4661
:10D2B0004FF0000327D001291FD0022919D00329DC
:10D2C00013D004290DD0052907D0062901D012F862
:10D2D000013B12F801EB73449BB212F801BB5B44B3
:10D2E0009BB212F8010B03449BB212F801CB6344CA
:10D2F0009BB212F8011B0B449BB212F801EB734472
:10D3000042459BB220D0934690781BF801CB9BF806
:10D31000001092F803B0634411FA83FE92F804C03F
:10D32000517910FA8EF31BFA83FE907908321CFAB9
:10D330008EFB11FA8BFC12F801EC10FA8CF31EFA3A
:10D3400083F142458BB2DED1D843B4F8182C1FFAD2
:10D3500080FB5A4500F0FC81A4F61C44AC4206F167
:10D36000FF369AD143F20C1500272AF805706B4B53
:10D370006B4A6C496C486D4C6D4E0491A3EB0A05E9
:10D38000A2EB0A070590069407960F9510970023C5
:10D39000CDF808A0CDF82080CDF83490DDE9014922
:10D3A000644A40F6184A02EBC317DDE906560AFB49
:10D3B0000492DDE904A4991D03913AF8020FC1B269
:10D3C00082F8A810E1B1B146A846A6461146BC466F
:10D3D0000020FCEC017A38F802BFC1ED2B7ABEECDC
:10D3E000010A81F8B4B081ED2C0A59F804BBC1F8E8
:10D3F000B8B092F8A8B00130834501F11001E8DC23
:10D40000039901338B4202F5017207F1800704F1A1
:10D41000800405F1400506F18006CEDB019B002B60
:10D4200000F0AA83019F012F00F0E484019D022DEA
:10D4300000F00982019E032E40F0F082DDF808A082
:10D44000DDF8349043F2121407F05CF9F32007F092
:10D4500069F93AF80400384940F61C4202FB00F230
:10D46000114409F51158B1F1016F08F1240BC0F016
:10D470009E8600262AF80460304C0221582007F0CE
:10D48000ABF9029402340194A4F61A4C0AF54457FD
:10D490000837A7EB0B02111F29488D080135A0EBB7
:10D4A0000A0415F0070364445E464BD0012B28D0D4
:10D4B000022B21D0032B1AD0042B13D0052B0CD018
:10D4C000062B05D00BEB040056F8041B07F0BEF941
:10D4D000301956F8041B07F0B9F9301956F8041B37
:10D4E00007F0B4F9301956F8041B07F0AFF93019FA
:10D4F00056F8041B07F0AAF9301956F8041B07F078
:10D50000A5F9301956F8041B07F0A0F9B74255D019
:10D5100018E000BF7CF00908E4F3070828E7FFFFE4
:10D5200040F3FFFF5260010884720108826C010819
:10D5300054540108846001081C0C0E08180C0E08D5
:10D5400010DBFFFFCDE903A9B9463746301957F87C
:10D55000041BBA4607F07AF95AF8041B381907F089
:10D5600075F906F10C08B1680AEB040006F1100524
:10D5700007F06CF9F16808EB040007F067F906F1B1
:10D5800014073169281906F11C0507F05FF906F147
:10D59000180A71693819203607F058F955F8041C33
:10D5A0000AEB040007F052F9281956F8041C07F09A
:10D5B0004DF9B145C9D14F46DDE903A9A7EB0B00F1
:10D5C00010F007024FF0000127D0012A1FD0022AD5
:10D5D00019D0032A13D0042A0DD0052A07D0062A11
:10D5E00001D01BF8011B1BF801EB714489B21BF839
:10D5F00001CB614489B21BF8014B214489B21BF86D
:10D60000013B194489B21BF8016B314489B21BF804
:10D61000018B41445F4589B223D05D469BF80220CF
:10D6200015F8010B9BF803E02C789BF804509BF84D
:10D630000680014414FA81F612FA86F39BF805007D
:10D640001EFA83FC0BF1080B15FA8CF110FA81F22B
:10D650001BF8014C18FA82F614FA86F55F45A9B258
:10D66000DBD143F21218CF43B9B2029807F00EF99A
:10D6700001983AF8081007F009F93AF80830013330
:10D680002AF808300AF54154F8EE486A4FF0000CC9
:10D690002034D346F7EE000A4FF0020E20269BF806
:10D6A000A830202B40F2B4848BF8A86059460020A3
:10D6B00031E091ED2B1AB4EEE07AF1EE10FAB5EE0E
:10D6C000C01AC8BFC1ED2C0AF1EE10FA33D4B4EE83
:10D6D000E61AF1EE10FAC8BFC1ED2B6A91F8B470EA
:10D6E000D1ED2E1A022FF5EEC01A88BF81F8B4E0F2
:10D6F000F1EE10FA00F15785F4EEE01AF1EE10FAAF
:10D70000C8BFC1ED2E0A9BF8A8500130854201F137
:10D71000100140F3808491ED2C7AB5EEC07AF1EEE1
:10D7200010FAC6D591ED2B1AC1F8B0C0B5EEC01AEB
:10D73000F1EE10FACBD5C1F8ACC0CFE7AAF8A460DF
:10D740000221382007F048F8C24EC34DC34BDBE43A
:10D75000B4F81ACCB4457FF4FFAD43F20C1E013689
:10D760000AF5C6552AF80E60BD4CBE4E183529275D
:10D7700040F6184221464046FAF70AFDA5EB08019B
:10D7800011F0070042464FF0000327D001281FD0B8
:10D79000022819D0032813D004280DD0052807D05B
:10D7A000062801D012F8013B12F801BB5B449BB282
:10D7B00012F801CB63449BB212F801EB73449BB2A5
:10D7C00012F8011B0B449BB212F8010B03449BB2ED
:10D7D00012F801BB5B44AA429BB220D096469078D7
:10D7E0001EF801CB9EF8001092F803E0634411FA92
:10D7F00083FB92F804C0517910FA8BF31EFA83FB75
:10D80000907908321CFA8BFE11FA8EFC12F801BCDA
:10D8100010FA8CF31BFA83F1AA428BB2DED1D84303
:10D82000B4F8182C1FFA80FE724500F02581A4F68A
:10D830001C44B44207F1FF379AD143F20E1500267B
:10D840002AF8056093E506F05DFFF32006F06AFF15
:10D8500043F21016029C844AA15B84480D9D40F659
:10D860001C4707FB01F7BB1805F5C25A83420AF1B2
:10D870000C0840F2B9840022A2530221502006F085
:10D88000ABFF7B4B12937B4C02331193029D0F9A9B
:10D8900005F513573037A7EB0809A9F104018808EB
:10D8A000013010F007031444C34637D0012B2DD0AC
:10D8B000022B25D0032B1DD0042B15D0052B0DD00A
:10D8C000062B05D008EB04005BF8041B06F0BEFF36
:10D8D0000BEB04005BF8041B06F0B8FF0BEB040035
:10D8E0005BF8041B06F0B2FF0BEB04005BF8041BB3
:10D8F00006F0ACFF0BEB04005BF8041B06F0A6FF80
:10D900000BEB04005BF8041B06F0A0FF0BEB04001C
:10D910005BF8041B06F09AFFBB4541D0CDF84C8064
:10D92000BA465D460BEB040055F8041BA84606F00A
:10D930008DFF58F8041B281906F088FF0BF10C091D
:10D94000DBF8081008EB04000BF1100506F07EFF71
:10D95000DBF80C1009EB040006F078FF0BF114075C
:10D96000DBF8101028190BF11C0506F06FFF0BF106
:10D970001808DBF8141038190BF1200B06F066FFBD
:10D9800055F8041C08EB040006F060FF28195BF84A
:10D99000041C06F05BFFD345C3D1DDF84C8057462D
:10D9A000A7EB080414F007004FF0000100F0EF812E
:10D9B00001281FD0022819D0032813D004280DD025
:10D9C000052807D0062801D018F8011B18F801EB2C
:10D9D000714489B218F801CB614489B218F8012B5F
:10D9E000114489B218F8013B194489B218F801BBF7
:10D9F000594489B218F801AB5144B84589B240F096
:10DA0000C681CF43B9B2129806F040FF1198029D2B
:10DA1000A95B06F03BFFAC5B0134AC53019D04985D
:10DA2000059A069C0799039B013501950C3002F578
:10DA3000407604F5C07701F54075182B04900596E3
:10DA4000069707957FF4AAACDDF808A0DDF83490BE
:10DA500018E600BF180006081A00060800000608AD
:10DA60007CF00B08E4F309081C0C0C08FFFF0D0800
:10DA7000180C0C0800000C08B4F81ACCBC457FF454
:10DA8000D6AE43F20E11013709F5C2530AF513550C
:10DA90002AF80170D14CD24F0C333035292640F68C
:10DAA000184221461846FAF773FB0346281A10F06D
:10DAB000070019464FF0000227D001281FD0022886
:10DAC00019D0032813D004280DD0052807D0062824
:10DAD00001D011F8012B11F801BB5A4492B211F890
